{
  "_format": "hh-sol-artifact-1",
  "contractName": "PharmaTracking",
  "sourceName": "contracts/PharmaTracking.sol",
  "abi": [
    {
      "inputs": [],
      "stateMutability": "nonpayable",
      "type": "constructor"
    },
    {
      "anonymous": false,
      "inputs": [
        {
          "indexed": true,
          "internalType": "uint256",
          "name": "batchId",
          "type": "uint256"
        },
        {
          "indexed": false,
          "internalType": "string",
          "name": "medicineName",
          "type": "string"
        },
        {
          "indexed": true,
          "internalType": "address",
          "name": "manufacturer",
          "type": "address"
        }
      ],
      "name": "BatchCreated",
      "type": "event"
    },
    {
      "anonymous": false,
      "inputs": [
        {
          "indexed": true,
          "internalType": "uint256",
          "name": "batchId",
          "type": "uint256"
        },
        {
          "indexed": true,
          "internalType": "address",
          "name": "from",
          "type": "address"
        },
        {
          "indexed": true,
          "internalType": "address",
          "name": "to",
          "type": "address"
        },
        {
          "indexed": false,
          "internalType": "enum PharmaTracking.Status",
          "name": "status",
          "type": "uint8"
        }
      ],
      "name": "BatchTransferred",
      "type": "event"
    },
    {
      "anonymous": false,
      "inputs": [
        {
          "indexed": true,
          "internalType": "address",
          "name": "user",
          "type": "address"
        },
        {
          "indexed": false,
          "internalType": "enum PharmaTracking.Role",
          "name": "role",
          "type": "uint8"
        }
      ],
      "name": "UserRegistered",
      "type": "event"
    },
    {
      "inputs": [],
      "name": "batchCount",
      "outputs": [
        {
          "internalType": "uint256",
          "name": "",
          "type": "uint256"
        }
      ],
      "stateMutability": "view",
      "type": "function"
    },
    {
      "inputs": [
        {
          "internalType": "uint256",
          "name": "",
          "type": "uint256"
        },
        {
          "internalType": "uint256",
          "name": "",
          "type": "uint256"
        }
      ],
      "name": "batchHistory",
      "outputs": [
        {
          "internalType": "address",
          "name": "from",
          "type": "address"
        },
        {
          "internalType": "address",
          "name": "to",
          "type": "address"
        },
        {
          "internalType": "uint256",
          "name": "timestamp",
          "type": "uint256"
        },
        {
          "internalType": "enum PharmaTracking.Status",
          "name": "status",
          "type": "uint8"
        },
        {
          "internalType": "string",
          "name": "location",
          "type": "string"
        }
      ],
      "stateMutability": "view",
      "type": "function"
    },
    {
      "inputs": [
        {
          "internalType": "uint256",
          "name": "",
          "type": "uint256"
        }
      ],
      "name": "batches",
      "outputs": [
        {
          "internalType": "uint256",
          "name": "batchId",
          "type": "uint256"
        },
        {
          "internalType": "string",
          "name": "medicineName",
          "type": "string"
        },
        {
          "internalType": "uint256",
          "name": "timestamp",
          "type": "uint256"
        },
        {
          "internalType": "string",
          "name": "expiryDate",
          "type": "string"
        },
        {
          "internalType": "string",
          "name": "location",
          "type": "string"
        },
        {
          "internalType": "address",
          "name": "manufacturer",
          "type": "address"
        },
        {
          "internalType": "address",
          "name": "currentOwner",
          "type": "address"
        },
        {
          "internalType": "enum PharmaTracking.Status",
          "name": "status",
          "type": "uint8"
        },
        {
          "internalType": "bool",
          "name": "exists",
          "type": "bool"
        }
      ],
      "stateMutability": "view",
      "type": "function"
    },
    {
      "inputs": [
        {
          "internalType": "string",
          "name": "_medicineName",
          "type": "string"
        },
        {
          "internalType": "string",
          "name": "_expiryDate",
          "type": "string"
        },
        {
          "internalType": "string",
          "name": "_location",
          "type": "string"
        }
      ],
      "name": "createBatch",
      "outputs": [],
      "stateMutability": "nonpayable",
      "type": "function"
    },
    {
      "inputs": [
        {
          "internalType": "uint256",
          "name": "_batchId",
          "type": "uint256"
        }
      ],
      "name": "getBatch",
      "outputs": [
        {
          "components": [
            {
              "internalType": "uint256",
              "name": "batchId",
              "type": "uint256"
            },
            {
              "internalType": "string",
              "name": "medicineName",
              "type": "string"
            },
            {
              "internalType": "uint256",
              "name": "timestamp",
              "type": "uint256"
            },
            {
              "internalType": "string",
              "name": "expiryDate",
              "type": "string"
            },
            {
              "internalType": "string",
              "name": "location",
              "type": "string"
            },
            {
              "internalType": "address",
              "name": "manufacturer",
              "type": "address"
            },
            {
              "internalType": "address",
              "name": "currentOwner",
              "type": "address"
            },
            {
              "internalType": "enum PharmaTracking.Status",
              "name": "status",
              "type": "uint8"
            },
            {
              "internalType": "bool",
              "name": "exists",
              "type": "bool"
            }
          ],
          "internalType": "struct PharmaTracking.Batch",
          "name": "",
          "type": "tuple"
        }
      ],
      "stateMutability": "view",
      "type": "function"
    },
    {
      "inputs": [
        {
          "internalType": "uint256",
          "name": "_batchId",
          "type": "uint256"
        }
      ],
      "name": "getBatchHistory",
      "outputs": [
        {
          "components": [
            {
              "internalType": "address",
              "name": "from",
              "type": "address"
            },
            {
              "internalType": "address",
              "name": "to",
              "type": "address"
            },
            {
              "internalType": "uint256",
              "name": "timestamp",
              "type": "uint256"
            },
            {
              "internalType": "enum PharmaTracking.Status",
              "name": "status",
              "type": "uint8"
            },
            {
              "internalType": "string",
              "name": "location",
              "type": "string"
            }
          ],
          "internalType": "struct PharmaTracking.HistoryItem[]",
          "name": "",
          "type": "tuple[]"
        }
      ],
      "stateMutability": "view",
      "type": "function"
    },
    {
      "inputs": [],
      "name": "getMyRole",
      "outputs": [
        {
          "internalType": "enum PharmaTracking.Role",
          "name": "",
          "type": "uint8"
        }
      ],
      "stateMutability": "view",
      "type": "function"
    },
    {
      "inputs": [
        {
          "internalType": "address",
          "name": "_user",
          "type": "address"
        },
        {
          "internalType": "enum PharmaTracking.Role",
          "name": "_role",
          "type": "uint8"
        }
      ],
      "name": "registerUser",
      "outputs": [],
      "stateMutability": "nonpayable",
      "type": "function"
    },
    {
      "inputs": [
        {
          "internalType": "uint256",
          "name": "_batchId",
          "type": "uint256"
        },
        {
          "internalType": "address",
          "name": "_to",
          "type": "address"
        },
        {
          "internalType": "enum PharmaTracking.Status",
          "name": "_newStatus",
          "type": "uint8"
        },
        {
          "internalType": "string",
          "name": "_location",
          "type": "string"
        }
      ],
      "name": "transferOwnership",
      "outputs": [],
      "stateMutability": "nonpayable",
      "type": "function"
    },
    {
      "inputs": [
        {
          "internalType": "address",
          "name": "",
          "type": "address"
        }
      ],
      "name": "users",
      "outputs": [
        {
          "internalType": "enum PharmaTracking.Role",
          "name": "",
          "type": "uint8"
        }
      ],
      "stateMutability": "view",
      "type": "function"
    }
  ],
  "bytecode": "0x60806040523480156200001157600080fd5b5060016000803373ffffffffffffffffffffffffffffffffffffffff1673ffffffffffffffffffffffffffffffffffffffff16815260200190815260200160002060006101000a81548160ff02191690836003811115620000775762000076620000d3565b5b02179055503373ffffffffffffffffffffffffffffffffffffffff167f8e18574f8a7333e6a87112742a55853a643e2f0550f4e1a3a2c3f1bb2994441d6001604051620000c5919062000153565b60405180910390a262000170565b7f4e487b7100000000000000000000000000000000000000000000000000000000600052602160045260246000fd5b60048110620001165762000115620000d3565b5b50565b6000819050620001298262000102565b919050565b60006200013b8262000119565b9050919050565b6200014d816200012e565b82525050565b60006020820190506200016a600083018462000142565b92915050565b61260980620001806000396000f3fe608060405234801561001057600080fd5b506004361061009e5760003560e01c8063a6cfb6c911610066578063a6cfb6c91461015f578063a87430ba1461017b578063b32c4d8d146101ab578063b96ddb30146101e3578063c7a8ccb1146101ff5761009e565b806306f13056146100a35780635ac44282146100c15780636e3b47fc146100f15780639000cb961461010f5780639e9fa09714610143575b600080fd5b6100ab61022f565b6040516100b8919061165e565b60405180910390f35b6100db60048036038101906100d691906116b9565b610235565b6040516100e8919061192b565b60405180910390f35b6100f9610592565b6040516101069190611995565b60405180910390f35b610129600480360381019061012491906119b0565b6105e5565b60405161013a959493929190611a58565b60405180910390f35b61015d60048036038101906101589190611b03565b61070d565b005b61017960048036038101906101749190611c78565b61082c565b005b61019560048036038101906101909190611d1f565b610ca4565b6040516101a29190611995565b60405180910390f35b6101c560048036038101906101c091906116b9565b610cc4565b6040516101da99989796959493929190611d5b565b60405180910390f35b6101fd60048036038101906101f89190611e22565b610f04565b005b610219600480360381019061021491906116b9565b611361565b6040516102269190611fdd565b60405180910390f35b60035481565b61023d6115b9565b6001600083815260200190815260200160002060060160159054906101000a900460ff166102a0576040517f08c379a00000000000000000000000000000000000000000000000000000000081526004016102979061204b565b60405180910390fd5b6001600083815260200190815260200160002060405180610120016040529081600082015481526020016001820180546102d99061209a565b80601f01602080910402602001604051908101604052809291908181526020018280546103059061209a565b80156103525780601f1061032757610100808354040283529160200191610352565b820191906000526020600020905b81548152906001019060200180831161033557829003601f168201915b50505050508152602001600282015481526020016003820180546103759061209a565b80601f01602080910402602001604051908101604052809291908181526020018280546103a19061209a565b80156103ee5780601f106103c3576101008083540402835291602001916103ee565b820191906000526020600020905b8154815290600101906020018083116103d157829003601f168201915b505050505081526020016004820180546104079061209a565b80601f01602080910402602001604051908101604052809291908181526020018280546104339061209a565b80156104805780601f1061045557610100808354040283529160200191610480565b820191906000526020600020905b81548152906001019060200180831161046357829003601f168201915b505050505081526020016005820160009054906101000a900473ffffffffffffffffffffffffffffffffffffffff1673ffffffffffffffffffffffffffffffffffffffff1673ffffffffffffffffffffffffffffffffffffffff1681526020016006820160009054906101000a900473ffffffffffffffffffffffffffffffffffffffff1673ffffffffffffffffffffffffffffffffffffffff1673ffffffffffffffffffffffffffffffffffffffff1681526020016006820160149054906101000a900460ff16600281111561055a576105596117c6565b5b600281111561056c5761056b6117c6565b5b81526020016006820160159054906101000a900460ff1615151515815250509050919050565b60008060003373ffffffffffffffffffffffffffffffffffffffff1673ffffffffffffffffffffffffffffffffffffffff16815260200190815260200160002060009054906101000a900460ff16905090565b6002602052816000526040600020818154811061060157600080fd5b9060005260206000209060050201600091509150508060000160009054906101000a900473ffffffffffffffffffffffffffffffffffffffff16908060010160009054906101000a900473ffffffffffffffffffffffffffffffffffffffff16908060020154908060030160009054906101000a900460ff169080600401805461068a9061209a565b80601f01602080910402602001604051908101604052809291908181526020018280546106b69061209a565b80156107035780601f106106d857610100808354040283529160200191610703565b820191906000526020600020905b8154815290600101906020018083116106e657829003601f168201915b5050505050905085565b60006003811115610721576107206117c6565b5b816003811115610734576107336117c6565b5b03610774576040517f08c379a000000000000000000000000000000000000000000000000000000000815260040161076b90612117565b60405180910390fd5b806000808473ffffffffffffffffffffffffffffffffffffffff1673ffffffffffffffffffffffffffffffffffffffff16815260200190815260200160002060006101000a81548160ff021916908360038111156107d5576107d46117c6565b5b02179055508173ffffffffffffffffffffffffffffffffffffffff167f8e18574f8a7333e6a87112742a55853a643e2f0550f4e1a3a2c3f1bb2994441d826040516108209190611995565b60405180910390a25050565b6001806003811115610841576108406117c6565b5b6000803373ffffffffffffffffffffffffffffffffffffffff1673ffffffffffffffffffffffffffffffffffffffff16815260200190815260200160002060009054906101000a900460ff16600381111561089f5761089e6117c6565b5b146108df576040517f08c379a00000000000000000000000000000000000000000000000000000000081526004016108d690612183565b60405180910390fd5b600360008154809291906108f2906121d2565b919050555060405180610120016040528060035481526020018581526020014281526020018481526020018381526020013373ffffffffffffffffffffffffffffffffffffffff1681526020013373ffffffffffffffffffffffffffffffffffffffff1681526020016000600281111561096f5761096e6117c6565b5b8152602001600115158152506001600060035481526020019081526020016000206000820151816000015560208201518160010190816109af91906123c6565b506040820151816002015560608201518160030190816109cf91906123c6565b5060808201518160040190816109e591906123c6565b5060a08201518160050160006101000a81548173ffffffffffffffffffffffffffffffffffffffff021916908373ffffffffffffffffffffffffffffffffffffffff16021790555060c08201518160060160006101000a81548173ffffffffffffffffffffffffffffffffffffffff021916908373ffffffffffffffffffffffffffffffffffffffff16021790555060e08201518160060160146101000a81548160ff02191690836002811115610a9f57610a9e6117c6565b5b02179055506101008201518160060160156101000a81548160ff0219169083151502179055509050506002600060035481526020019081526020016000206040518060a00160405280600073ffffffffffffffffffffffffffffffffffffffff1681526020013373ffffffffffffffffffffffffffffffffffffffff16815260200142815260200160006002811115610b3b57610b3a6117c6565b5b815260200184815250908060018154018082558091505060019003906000526020600020906005020160009091909190915060008201518160000160006101000a81548173ffffffffffffffffffffffffffffffffffffffff021916908373ffffffffffffffffffffffffffffffffffffffff16021790555060208201518160010160006101000a81548173ffffffffffffffffffffffffffffffffffffffff021916908373ffffffffffffffffffffffffffffffffffffffff1602179055506040820151816002015560608201518160030160006101000a81548160ff02191690836002811115610c3057610c2f6117c6565b5b02179055506080820151816004019081610c4a91906123c6565b5050503373ffffffffffffffffffffffffffffffffffffffff166003547f195a26ecf0c9b8fb957ecc3a7c029ce84849279de600e16f205ee789052052b686604051610c969190612498565b60405180910390a350505050565b60006020528060005260406000206000915054906101000a900460ff1681565b6001602052806000526040600020600091509050806000015490806001018054610ced9061209a565b80601f0160208091040260200160405190810160405280929190818152602001828054610d199061209a565b8015610d665780601f10610d3b57610100808354040283529160200191610d66565b820191906000526020600020905b815481529060010190602001808311610d4957829003601f168201915b505050505090806002015490806003018054610d819061209a565b80601f0160208091040260200160405190810160405280929190818152602001828054610dad9061209a565b8015610dfa5780601f10610dcf57610100808354040283529160200191610dfa565b820191906000526020600020905b815481529060010190602001808311610ddd57829003601f168201915b505050505090806004018054610e0f9061209a565b80601f0160208091040260200160405190810160405280929190818152602001828054610e3b9061209a565b8015610e885780601f10610e5d57610100808354040283529160200191610e88565b820191906000526020600020905b815481529060010190602001808311610e6b57829003601f168201915b5050505050908060050160009054906101000a900473ffffffffffffffffffffffffffffffffffffffff16908060060160009054906101000a900473ffffffffffffffffffffffffffffffffffffffff16908060060160149054906101000a900460ff16908060060160159054906101000a900460ff16905089565b6001600085815260200190815260200160002060060160159054906101000a900460ff16610f67576040517f08c379a0000000000000000000000000000000000000000000000000000000008152600401610f5e9061204b565b60405180910390fd5b3373ffffffffffffffffffffffffffffffffffffffff166001600086815260200190815260200160002060060160009054906101000a900473ffffffffffffffffffffffffffffffffffffffff1673ffffffffffffffffffffffffffffffffffffffff161461100b576040517f08c379a000000000000000000000000000000000000000000000000000000000815260040161100290612506565b60405180910390fd5b6000600381111561101f5761101e6117c6565b5b6000808573ffffffffffffffffffffffffffffffffffffffff1673ffffffffffffffffffffffffffffffffffffffff16815260200190815260200160002060009054906101000a900460ff16600381111561107d5761107c6117c6565b5b036110bd576040517f08c379a00000000000000000000000000000000000000000000000000000000081526004016110b490612598565b60405180910390fd5b826001600086815260200190815260200160002060060160006101000a81548173ffffffffffffffffffffffffffffffffffffffff021916908373ffffffffffffffffffffffffffffffffffffffff160217905550816001600086815260200190815260200160002060060160146101000a81548160ff0219169083600281111561114b5761114a6117c6565b5b02179055508060016000868152602001908152602001600020600401908161117391906123c6565b50600260008581526020019081526020016000206040518060a001604052803373ffffffffffffffffffffffffffffffffffffffff1681526020018573ffffffffffffffffffffffffffffffffffffffff1681526020014281526020018460028111156111e3576111e26117c6565b5b815260200183815250908060018154018082558091505060019003906000526020600020906005020160009091909190915060008201518160000160006101000a81548173ffffffffffffffffffffffffffffffffffffffff021916908373ffffffffffffffffffffffffffffffffffffffff16021790555060208201518160010160006101000a81548173ffffffffffffffffffffffffffffffffffffffff021916908373ffffffffffffffffffffffffffffffffffffffff1602179055506040820151816002015560608201518160030160006101000a81548160ff021916908360028111156112d8576112d76117c6565b5b021790555060808201518160040190816112f291906123c6565b5050508273ffffffffffffffffffffffffffffffffffffffff163373ffffffffffffffffffffffffffffffffffffffff16857fcab0f2901210bf74f715e3e04951787015be7d588bf4853aabc72d527890f9298560405161135391906125b8565b60405180910390a450505050565b60606001600083815260200190815260200160002060060160159054906101000a900460ff166113c6576040517f08c379a00000000000000000000000000000000000000000000000000000000081526004016113bd9061204b565b60405180910390fd5b60026000838152602001908152602001600020805480602002602001604051908101604052809291908181526020016000905b828210156115ae57838290600052602060002090600502016040518060a00160405290816000820160009054906101000a900473ffffffffffffffffffffffffffffffffffffffff1673ffffffffffffffffffffffffffffffffffffffff1673ffffffffffffffffffffffffffffffffffffffff1681526020016001820160009054906101000a900473ffffffffffffffffffffffffffffffffffffffff1673ffffffffffffffffffffffffffffffffffffffff1673ffffffffffffffffffffffffffffffffffffffff168152602001600282015481526020016003820160009054906101000a900460ff1660028111156114f7576114f66117c6565b5b6002811115611509576115086117c6565b5b815260200160048201805461151d9061209a565b80601f01602080910402602001604051908101604052809291908181526020018280546115499061209a565b80156115965780601f1061156b57610100808354040283529160200191611596565b820191906000526020600020905b81548152906001019060200180831161157957829003601f168201915b505050505081525050815260200190600101906113f9565b505050509050919050565b6040518061012001604052806000815260200160608152602001600081526020016060815260200160608152602001600073ffffffffffffffffffffffffffffffffffffffff168152602001600073ffffffffffffffffffffffffffffffffffffffff16815260200160006002811115611636576116356117c6565b5b81526020016000151581525090565b6000819050919050565b61165881611645565b82525050565b6000602082019050611673600083018461164f565b92915050565b6000604051905090565b600080fd5b600080fd5b61169681611645565b81146116a157600080fd5b50565b6000813590506116b38161168d565b92915050565b6000602082840312156116cf576116ce611683565b5b60006116dd848285016116a4565b91505092915050565b6116ef81611645565b82525050565b600081519050919050565b600082825260208201905092915050565b60005b8381101561172f578082015181840152602081019050611714565b60008484015250505050565b6000601f19601f8301169050919050565b6000611757826116f5565b6117618185611700565b9350611771818560208601611711565b61177a8161173b565b840191505092915050565b600073ffffffffffffffffffffffffffffffffffffffff82169050919050565b60006117b082611785565b9050919050565b6117c0816117a5565b82525050565b7f4e487b7100000000000000000000000000000000000000000000000000000000600052602160045260246000fd5b60038110611806576118056117c6565b5b50565b6000819050611817826117f5565b919050565b600061182782611809565b9050919050565b6118378161181c565b82525050565b60008115159050919050565b6118528161183d565b82525050565b60006101208301600083015161187160008601826116e6565b5060208301518482036020860152611889828261174c565b915050604083015161189e60408601826116e6565b50606083015184820360608601526118b6828261174c565b915050608083015184820360808601526118d0828261174c565b91505060a08301516118e560a08601826117b7565b5060c08301516118f860c08601826117b7565b5060e083015161190b60e086018261182e565b50610100830151611920610100860182611849565b508091505092915050565b600060208201905081810360008301526119458184611858565b905092915050565b6004811061195e5761195d6117c6565b5b50565b600081905061196f8261194d565b919050565b600061197f82611961565b9050919050565b61198f81611974565b82525050565b60006020820190506119aa6000830184611986565b92915050565b600080604083850312156119c7576119c6611683565b5b60006119d5858286016116a4565b92505060206119e6858286016116a4565b9150509250929050565b6119f9816117a5565b82525050565b611a088161181c565b82525050565b600082825260208201905092915050565b6000611a2a826116f5565b611a348185611a0e565b9350611a44818560208601611711565b611a4d8161173b565b840191505092915050565b600060a082019050611a6d60008301886119f0565b611a7a60208301876119f0565b611a87604083018661164f565b611a9460608301856119ff565b8181036080830152611aa68184611a1f565b90509695505050505050565b611abb816117a5565b8114611ac657600080fd5b50565b600081359050611ad881611ab2565b92915050565b60048110611aeb57600080fd5b50565b600081359050611afd81611ade565b92915050565b60008060408385031215611b1a57611b19611683565b5b6000611b2885828601611ac9565b9250506020611b3985828601611aee565b9150509250929050565b600080fd5b600080fd5b7f4e487b7100000000000000000000000000000000000000000000000000000000600052604160045260246000fd5b611b858261173b565b810181811067ffffffffffffffff82111715611ba457611ba3611b4d565b5b80604052505050565b6000611bb7611679565b9050611bc38282611b7c565b919050565b600067ffffffffffffffff821115611be357611be2611b4d565b5b611bec8261173b565b9050602081019050919050565b82818337600083830152505050565b6000611c1b611c1684611bc8565b611bad565b905082815260208101848484011115611c3757611c36611b48565b5b611c42848285611bf9565b509392505050565b600082601f830112611c5f57611c5e611b43565b5b8135611c6f848260208601611c08565b91505092915050565b600080600060608486031215611c9157611c90611683565b5b600084013567ffffffffffffffff811115611caf57611cae611688565b5b611cbb86828701611c4a565b935050602084013567ffffffffffffffff811115611cdc57611cdb611688565b5b611ce886828701611c4a565b925050604084013567ffffffffffffffff811115611d0957611d08611688565b5b611d1586828701611c4a565b9150509250925092565b600060208284031215611d3557611d34611683565b5b6000611d4384828501611ac9565b91505092915050565b611d558161183d565b82525050565b600061012082019050611d71600083018c61164f565b8181036020830152611d83818b611a1f565b9050611d92604083018a61164f565b8181036060830152611da48189611a1f565b90508181036080830152611db88188611a1f565b9050611dc760a08301876119f0565b611dd460c08301866119f0565b611de160e08301856119ff565b611def610100830184611d4c565b9a9950505050505050505050565b60038110611e0a57600080fd5b50565b600081359050611e1c81611dfd565b92915050565b60008060008060808587031215611e3c57611e3b611683565b5b6000611e4a878288016116a4565b9450506020611e5b87828801611ac9565b9350506040611e6c87828801611e0d565b925050606085013567ffffffffffffffff811115611e8d57611e8c611688565b5b611e9987828801611c4a565b91505092959194509250565b600081519050919050565b600082825260208201905092915050565b6000819050602082019050919050565b600060a083016000830151611ee960008601826117b7565b506020830151611efc60208601826117b7565b506040830151611f0f60408601826116e6565b506060830151611f22606086018261182e565b5060808301518482036080860152611f3a828261174c565b9150508091505092915050565b6000611f538383611ed1565b905092915050565b6000602082019050919050565b6000611f7382611ea5565b611f7d8185611eb0565b935083602082028501611f8f85611ec1565b8060005b85811015611fcb5784840389528151611fac8582611f47565b9450611fb783611f5b565b925060208a01995050600181019050611f93565b50829750879550505050505092915050565b60006020820190508181036000830152611ff78184611f68565b905092915050565b7f426174636820646f6573206e6f74206578697374000000000000000000000000600082015250565b6000612035601483611a0e565b915061204082611fff565b602082019050919050565b6000602082019050818103600083015261206481612028565b9050919050565b7f4e487b7100000000000000000000000000000000000000000000000000000000600052602260045260246000fd5b600060028204905060018216806120b257607f821691505b6020821081036120c5576120c461206b565b5b50919050565b7f496e76616c696420726f6c650000000000000000000000000000000000000000600082015250565b6000612101600c83611a0e565b915061210c826120cb565b602082019050919050565b60006020820190508181036000830152612130816120f4565b9050919050565b7f556e617574686f72697a656420726f6c65000000000000000000000000000000600082015250565b600061216d601183611a0e565b915061217882612137565b602082019050919050565b6000602082019050818103600083015261219c81612160565b9050919050565b7f4e487b7100000000000000000000000000000000000000000000000000000000600052601160045260246000fd5b60006121dd82611645565b91507fffffffffffffffffffffffffffffffffffffffffffffffffffffffffffffffff820361220f5761220e6121a3565b5b600182019050919050565b60008190508160005260206000209050919050565b60006020601f8301049050919050565b600082821b905092915050565b60006008830261227c7fffffffffffffffffffffffffffffffffffffffffffffffffffffffffffffffff8261223f565b612286868361223f565b95508019841693508086168417925050509392505050565b6000819050919050565b60006122c36122be6122b984611645565b61229e565b611645565b9050919050565b6000819050919050565b6122dd836122a8565b6122f16122e9826122ca565b84845461224c565b825550505050565b600090565b6123066122f9565b6123118184846122d4565b505050565b5b818110156123355761232a6000826122fe565b600181019050612317565b5050565b601f82111561237a5761234b8161221a565b6123548461222f565b81016020851015612363578190505b61237761236f8561222f565b830182612316565b50505b505050565b600082821c905092915050565b600061239d6000198460080261237f565b1980831691505092915050565b60006123b6838361238c565b9150826002028217905092915050565b6123cf826116f5565b67ffffffffffffffff8111156123e8576123e7611b4d565b5b6123f2825461209a565b6123fd828285612339565b600060209050601f831160018114612430576000841561241e578287015190505b61242885826123aa565b865550612490565b601f19841661243e8661221a565b60005b8281101561246657848901518255600182019150602085019450602081019050612441565b86831015612483578489015161247f601f89168261238c565b8355505b6001600288020188555050505b505050505050565b600060208201905081810360008301526124b28184611a1f565b905092915050565b7f596f7520646f206e6f74206f776e207468697320626174636800000000000000600082015250565b60006124f0601983611a0e565b91506124fb826124ba565b602082019050919050565b6000602082019050818103600083015261251f816124e3565b9050919050565b7f5265636569766572206d7573742068617665206120726567697374657265642060008201527f726f6c6500000000000000000000000000000000000000000000000000000000602082015250565b6000612582602483611a0e565b915061258d82612526565b604082019050919050565b600060208201905081810360008301526125b181612575565b9050919050565b60006020820190506125cd60008301846119ff565b9291505056fea2646970667358221220f87c36325df6c1dd768fb1b183784f564e8269e17f27fa6a0caf9e609488a3a664736f6c63430008140033",
  "linkReferences": {},
  "deployedLinkReferences": {}
}